{
  "contractName": "RegalAuction",
  "abi": [
    {
      "constant": true,
      "inputs": [],
      "name": "endBlock",
      "outputs": [
        {
          "name": "",
          "type": "uint256"
        }
      ],
      "payable": false,
      "stateMutability": "view",
      "type": "function"
    },
    {
      "constant": true,
      "inputs": [],
      "name": "canceled",
      "outputs": [
        {
          "name": "",
          "type": "bool"
        }
      ],
      "payable": false,
      "stateMutability": "view",
      "type": "function"
    },
    {
      "constant": true,
      "inputs": [],
      "name": "startBlock",
      "outputs": [
        {
          "name": "",
          "type": "uint256"
        }
      ],
      "payable": false,
      "stateMutability": "view",
      "type": "function"
    },
    {
      "constant": true,
      "inputs": [],
      "name": "owner",
      "outputs": [
        {
          "name": "",
          "type": "address"
        }
      ],
      "payable": false,
      "stateMutability": "view",
      "type": "function"
    },
    {
      "constant": true,
      "inputs": [],
      "name": "highestBidder",
      "outputs": [
        {
          "name": "",
          "type": "address"
        }
      ],
      "payable": false,
      "stateMutability": "view",
      "type": "function"
    },
    {
      "constant": true,
      "inputs": [],
      "name": "tokenAddress",
      "outputs": [
        {
          "name": "",
          "type": "uint256"
        }
      ],
      "payable": false,
      "stateMutability": "view",
      "type": "function"
    },
    {
      "constant": true,
      "inputs": [],
      "name": "bidIncrement",
      "outputs": [
        {
          "name": "",
          "type": "uint256"
        }
      ],
      "payable": false,
      "stateMutability": "view",
      "type": "function"
    },
    {
      "constant": true,
      "inputs": [
        {
          "name": "",
          "type": "address"
        }
      ],
      "name": "fundsByBidder",
      "outputs": [
        {
          "name": "",
          "type": "uint256"
        }
      ],
      "payable": false,
      "stateMutability": "view",
      "type": "function"
    },
    {
      "constant": true,
      "inputs": [],
      "name": "highestBindingBid",
      "outputs": [
        {
          "name": "",
          "type": "uint256"
        }
      ],
      "payable": false,
      "stateMutability": "view",
      "type": "function"
    },
    {
      "anonymous": false,
      "inputs": [
        {
          "indexed": false,
          "name": "bidder",
          "type": "address"
        },
        {
          "indexed": false,
          "name": "bid",
          "type": "uint256"
        },
        {
          "indexed": false,
          "name": "highestBidder",
          "type": "address"
        },
        {
          "indexed": false,
          "name": "highestBid",
          "type": "uint256"
        },
        {
          "indexed": false,
          "name": "highestBindingBid",
          "type": "uint256"
        }
      ],
      "name": "LogBid",
      "type": "event"
    },
    {
      "anonymous": false,
      "inputs": [
        {
          "indexed": false,
          "name": "withdrawer",
          "type": "address"
        },
        {
          "indexed": false,
          "name": "withdrawalAccount",
          "type": "address"
        },
        {
          "indexed": false,
          "name": "amount",
          "type": "uint256"
        }
      ],
      "name": "LogWithdrawal",
      "type": "event"
    },
    {
      "anonymous": false,
      "inputs": [],
      "name": "LogCanceled",
      "type": "event"
    },
    {
      "constant": false,
      "inputs": [
        {
          "name": "_owner",
          "type": "address"
        },
        {
          "name": "_bidIncrement",
          "type": "uint256"
        },
        {
          "name": "_startBlock",
          "type": "uint256"
        },
        {
          "name": "_endBlock",
          "type": "uint256"
        },
        {
          "name": "_tokenAddress",
          "type": "uint256"
        }
      ],
      "name": "Auction",
      "outputs": [],
      "payable": false,
      "stateMutability": "nonpayable",
      "type": "function"
    },
    {
      "constant": true,
      "inputs": [],
      "name": "getHighestBid",
      "outputs": [
        {
          "name": "",
          "type": "uint256"
        }
      ],
      "payable": false,
      "stateMutability": "view",
      "type": "function"
    },
    {
      "constant": false,
      "inputs": [],
      "name": "placeBid",
      "outputs": [
        {
          "name": "success",
          "type": "bool"
        }
      ],
      "payable": true,
      "stateMutability": "payable",
      "type": "function"
    },
    {
      "constant": false,
      "inputs": [],
      "name": "cancelAuction",
      "outputs": [
        {
          "name": "success",
          "type": "bool"
        }
      ],
      "payable": false,
      "stateMutability": "nonpayable",
      "type": "function"
    },
    {
      "constant": false,
      "inputs": [],
      "name": "withdraw",
      "outputs": [
        {
          "name": "success",
          "type": "bool"
        }
      ],
      "payable": false,
      "stateMutability": "nonpayable",
      "type": "function"
    }
  ],
  "bytecode": "0x608060405234801561001057600080fd5b50610e1e806100206000396000f3006080604052600436106100d0576000357c0100000000000000000000000000000000000000000000000000000000900463ffffffff168063083c6323146100d55780633ccfd60b146101005780633f9942ff1461012f57806348cd4cb11461015e5780634979440a14610189578063771057f2146101b45780638da5cb5b1461021f5780638fa8b7901461027657806391f90157146102a55780639d76ea58146102fc578063b3cc167a14610327578063ce10cf8014610352578063ecfc7ecc146103a9578063f5b56c56146103cb575b600080fd5b3480156100e157600080fd5b506100ea6103f6565b6040518082815260200191505060405180910390f35b34801561010c57600080fd5b506101156103fc565b604051808215151515815260200191505060405180910390f35b34801561013b57600080fd5b50610144610819565b604051808215151515815260200191505060405180910390f35b34801561016a57600080fd5b5061017361082c565b6040518082815260200191505060405180910390f35b34801561019557600080fd5b5061019e610832565b6040518082815260200191505060405180910390f35b3480156101c057600080fd5b5061021d600480360381019080803573ffffffffffffffffffffffffffffffffffffffff1690602001909291908035906020019092919080359060200190929190803590602001909291908035906020019092919050505061089b565b005b34801561022b57600080fd5b5061023461093d565b604051808273ffffffffffffffffffffffffffffffffffffffff1673ffffffffffffffffffffffffffffffffffffffff16815260200191505060405180910390f35b34801561028257600080fd5b5061028b610962565b604051808215151515815260200191505060405180910390f35b3480156102b157600080fd5b506102ba610a36565b604051808273ffffffffffffffffffffffffffffffffffffffff1673ffffffffffffffffffffffffffffffffffffffff16815260200191505060405180910390f35b34801561030857600080fd5b50610311610a5c565b6040518082815260200191505060405180910390f35b34801561033357600080fd5b5061033c610a62565b6040518082815260200191505060405180910390f35b34801561035e57600080fd5b50610393600480360381019080803573ffffffffffffffffffffffffffffffffffffffff169060200190929190505050610a68565b6040518082815260200191505060405180910390f35b6103b1610a80565b604051808215151515815260200191505060405180910390f35b3480156103d757600080fd5b506103e0610dd0565b6040518082815260200191505060405180910390f35b60035481565b60008060006003544310801561041f5750600560009054906101000a900460ff16155b1561042957600080fd5b600560009054906101000a900460ff161561048857339150600860008373ffffffffffffffffffffffffffffffffffffffff1673ffffffffffffffffffffffffffffffffffffffff1681526020019081526020016000205490506106d6565b6000809054906101000a900473ffffffffffffffffffffffffffffffffffffffff1673ffffffffffffffffffffffffffffffffffffffff163373ffffffffffffffffffffffffffffffffffffffff16141561052757600760009054906101000a900473ffffffffffffffffffffffffffffffffffffffff16915060065490506001600760146101000a81548160ff0219169083151502179055506106d5565b600760009054906101000a900473ffffffffffffffffffffffffffffffffffffffff1673ffffffffffffffffffffffffffffffffffffffff163373ffffffffffffffffffffffffffffffffffffffff16141561068e57600760009054906101000a900473ffffffffffffffffffffffffffffffffffffffff169150600760149054906101000a900460ff16156106205760086000600760009054906101000a900473ffffffffffffffffffffffffffffffffffffffff1673ffffffffffffffffffffffffffffffffffffffff1673ffffffffffffffffffffffffffffffffffffffff168152602001908152602001600020549050610689565b60065460086000600760009054906101000a900473ffffffffffffffffffffffffffffffffffffffff1673ffffffffffffffffffffffffffffffffffffffff1673ffffffffffffffffffffffffffffffffffffffff168152602001908152602001600020540390505b6106d4565b339150600860008373ffffffffffffffffffffffffffffffffffffffff1673ffffffffffffffffffffffffffffffffffffffff1681526020019081526020016000205490505b5b5b60008114156106e457600080fd5b80600860008473ffffffffffffffffffffffffffffffffffffffff1673ffffffffffffffffffffffffffffffffffffffff168152602001908152602001600020600082825403925050819055503373ffffffffffffffffffffffffffffffffffffffff166108fc829081150290604051600060405180830381858888f19350505050151561077157600080fd5b7f0ec497a8ae5b1ba29c60470ef651def995fac3deebbdcc56c47a4e5f51a4c2bd338383604051808473ffffffffffffffffffffffffffffffffffffffff1673ffffffffffffffffffffffffffffffffffffffff1681526020018373ffffffffffffffffffffffffffffffffffffffff1673ffffffffffffffffffffffffffffffffffffffff168152602001828152602001935050505060405180910390a160019250505090565b600560009054906101000a900460ff1681565b60025481565b600060086000600760009054906101000a900473ffffffffffffffffffffffffffffffffffffffff1673ffffffffffffffffffffffffffffffffffffffff1673ffffffffffffffffffffffffffffffffffffffff16815260200190815260200160002054905090565b81831015156108a957600080fd5b438310156108b657600080fd5b60008573ffffffffffffffffffffffffffffffffffffffff1614156108da57600080fd5b846000806101000a81548173ffffffffffffffffffffffffffffffffffffffff021916908373ffffffffffffffffffffffffffffffffffffffff160217905550836001819055508260028190555081600381905550806004819055505050505050565b6000809054906101000a900473ffffffffffffffffffffffffffffffffffffffff1681565b60008060009054906101000a900473ffffffffffffffffffffffffffffffffffffffff1673ffffffffffffffffffffffffffffffffffffffff163373ffffffffffffffffffffffffffffffffffffffff161415156109bf57600080fd5b6003544311156109ce57600080fd5b600560009054906101000a900460ff16156109e857600080fd5b6001600560006101000a81548160ff0219169083151502179055507f462b6ca7f632601af1295aeb320851f50e8e630a309173f23535845ea4bfb3b960405160405180910390a16001905090565b600760009054906101000a900473ffffffffffffffffffffffffffffffffffffffff1681565b60045481565b60015481565b60086020528060005260406000206000915090505481565b6000806000600254431015610a9457600080fd5b600354431115610aa357600080fd5b600560009054906101000a900460ff1615610abd57600080fd5b6000809054906101000a900473ffffffffffffffffffffffffffffffffffffffff1673ffffffffffffffffffffffffffffffffffffffff163373ffffffffffffffffffffffffffffffffffffffff161415610b1757600080fd5b6000341415610b2557600080fd5b34600860003373ffffffffffffffffffffffffffffffffffffffff1673ffffffffffffffffffffffffffffffffffffffff1681526020019081526020016000205401915060065482111515610b7957600080fd5b60086000600760009054906101000a900473ffffffffffffffffffffffffffffffffffffffff1673ffffffffffffffffffffffffffffffffffffffff1673ffffffffffffffffffffffffffffffffffffffff16815260200190815260200160002054905081600860003373ffffffffffffffffffffffffffffffffffffffff1673ffffffffffffffffffffffffffffffffffffffff168152602001908152602001600020819055508082111515610c4357610c38600154830182610dd6565b600681905550610cf4565b600760009054906101000a900473ffffffffffffffffffffffffffffffffffffffff1673ffffffffffffffffffffffffffffffffffffffff163373ffffffffffffffffffffffffffffffffffffffff16141515610cf05733600760006101000a81548173ffffffffffffffffffffffffffffffffffffffff021916908373ffffffffffffffffffffffffffffffffffffffff160217905550610ce9826001548301610dd6565b6006819055505b8190505b7ff152f4ff5e488c55370a2d53925a55055228ebd8ec95bd0251bbb299e48786b03383600760009054906101000a900473ffffffffffffffffffffffffffffffffffffffff1684600654604051808673ffffffffffffffffffffffffffffffffffffffff1673ffffffffffffffffffffffffffffffffffffffff1681526020018581526020018473ffffffffffffffffffffffffffffffffffffffff1673ffffffffffffffffffffffffffffffffffffffff1681526020018381526020018281526020019550505050505060405180910390a160019250505090565b60065481565b600081831015610de857829050610dec565b8190505b929150505600a165627a7a7230582057549f7054d7e65b553b5ac9d315135c32f1f3f12b7e58389c90e0fd98bf38c10029",
  "source": "pragma solidity 0.4.24;\n\nimport \"./ERC721/ERC721.sol\";\n\ncontract RegalAuction {\n    // static\n    address public owner;\n    uint public bidIncrement;\n    uint public startBlock;\n    uint public endBlock;\n    // for future meta data implementation\n    // string public ipfsHash;\n\n    // state\n    uint256 public tokenAddress;\n    bool public canceled;\n    uint public highestBindingBid;\n    address public highestBidder;\n    bool ownerHasWithdrawn;\n\n    mapping(address => uint256) public fundsByBidder;\n\n    // events to be emitted\n\n    event LogBid(address bidder, uint bid, address highestBidder, uint highestBid, uint highestBindingBid);\n    event LogWithdrawal(address withdrawer, address withdrawalAccount, uint amount);\n    event LogCanceled();\n\n    function Auction(address _owner, uint _bidIncrement, uint _startBlock, uint _endBlock, uint256 _tokenAddress) public {\n        if (_startBlock >= _endBlock) revert();\n        if (_startBlock < block.number) revert();\n        if (_owner == 0) revert();\n\n        owner = _owner;\n        bidIncrement = _bidIncrement;\n        startBlock = _startBlock;\n        endBlock = _endBlock;\n        tokenAddress = _tokenAddress;\n        // ipfsHash = _ipfsHash;\n    }\n\n    function getHighestBid() public\n        constant\n        returns (uint) \n    {\n        return fundsByBidder[highestBidder];\n    }\n\n    function placeBid() public\n        payable\n        onlyAfterStart\n        onlyBeforeEnd\n        onlyNotCanceled\n        onlyNotOwner\n        returns (bool success)\n    {\n        // reject payments of 0 ETH\n        if (msg.value == 0) revert();\n\n        // calculate the user's total bid based on the current amount they've sent to the contract\n        // plus whatever has been sent with this transaction\n        uint newBid = fundsByBidder[msg.sender] + msg.value;\n\n        // if the user isn't even willing to overbid the highest binding bid, there's nothing for us\n        // to do except revert the transaction.\n        if (newBid <= highestBindingBid) revert();\n\n        // grab the previous highest bid (before updating fundsByBidder, in case msg.sender is the\n        // highestBidder and is just increasing their maximum bid).\n        uint highestBid = fundsByBidder[highestBidder];\n\n        fundsByBidder[msg.sender] = newBid;\n\n        if (newBid <= highestBid) {\n            // if the user has overbid the highestBindingBid but not the highestBid, we simply\n            // increase the highestBindingBid and leave highestBidder alone.\n\n            // note that this case is impossible if msg.sender == highestBidder because you can never\n            // bid less ETH than you've already bid.\n\n            highestBindingBid = min(newBid + bidIncrement, highestBid);\n        } else {\n            // if msg.sender is already the highest bidder, they must simply be wanting to raise\n            // their maximum bid, in which case we shouldn't increase the highestBindingBid.\n\n            // if the user is NOT highestBidder, and has overbid highestBid completely, we set them\n            // as the new highestBidder and recalculate highestBindingBid.\n\n            if (msg.sender != highestBidder) {\n                highestBidder = msg.sender;\n                highestBindingBid = min(newBid, highestBid + bidIncrement);\n            }\n            highestBid = newBid;\n        }\n\n        emit LogBid(msg.sender, newBid, highestBidder, highestBid, highestBindingBid);\n        return true;\n    }\n\n    function min(uint a, uint b)\n        private\n        constant\n        returns (uint)\n    {\n        if (a < b) return a;\n        return b;\n    }\n\n    function cancelAuction() public\n        onlyOwner\n        onlyBeforeEnd\n        onlyNotCanceled\n        returns (bool success)\n    {\n        canceled = true;\n        emit LogCanceled();\n        return true;\n    }\n\n    function withdraw() public\n        onlyEndedOrCanceled\n        returns (bool success)\n    {\n        address withdrawalAccount;\n        uint withdrawalAmount;\n\n        if (canceled) {\n            // if the auction was canceled, everyone should simply be allowed to withdraw their funds\n            withdrawalAccount = msg.sender;\n            withdrawalAmount = fundsByBidder[withdrawalAccount];\n\n        } else {\n            // the auction finished without being canceled\n\n            if (msg.sender == owner) {\n                // the auction's owner should be allowed to withdraw the highestBindingBid\n                withdrawalAccount = highestBidder;\n                withdrawalAmount = highestBindingBid;\n                ownerHasWithdrawn = true;\n\n            } else if (msg.sender == highestBidder) {\n                // the highest bidder should only be allowed to withdraw the difference between their\n                // highest bid and the highestBindingBid\n                withdrawalAccount = highestBidder;\n                if (ownerHasWithdrawn) {\n                    withdrawalAmount = fundsByBidder[highestBidder];\n                } else {\n                    withdrawalAmount = fundsByBidder[highestBidder] - highestBindingBid;\n                }\n\n            } else {\n                // anyone who participated but did not win the auction should be allowed to withdraw\n                // the full amount of their funds\n                withdrawalAccount = msg.sender;\n                withdrawalAmount = fundsByBidder[withdrawalAccount];\n            }\n        }\n\n        if (withdrawalAmount == 0) revert();\n\n        fundsByBidder[withdrawalAccount] -= withdrawalAmount;\n\n        // send the funds\n        if (!msg.sender.send(withdrawalAmount)) revert();\n\n        emit LogWithdrawal(msg.sender, withdrawalAccount, withdrawalAmount);\n\n        return true;\n    }\n\n    modifier onlyOwner {\n        if (msg.sender != owner) revert();\n        _;\n    }\n\n    modifier onlyNotOwner {\n        if (msg.sender == owner) revert();\n        _;\n    }\n\n    modifier onlyAfterStart {\n        if (block.number < startBlock) revert();\n        _;\n    }\n\n    modifier onlyBeforeEnd {\n        if (block.number > endBlock) revert();\n        _;\n    }\n\n    modifier onlyNotCanceled {\n        if (canceled) revert();\n        _;\n    }\n\n    modifier onlyEndedOrCanceled {\n        if (block.number < endBlock && !canceled) revert();\n        _;\n    }\n}\n\n\n\n\n\n\n\n\n\n\n\n\n// contract RegalAuction is ERC721TokenReciever {\n//     mapping(uint256 => AuctionDetails) auctionDetails;\n\n//     struct AuctionDetails {\n//         ERC721 nftContract;\n//         bool bidIsComplete;\n//         address seller;\n//         address winningBidder;\n//         uint256 tokenId;\n//     }\n\n//     // Transfer an NFT to the contract to start the auction\n//     function onERC721Received(\n//         address,\n//         address from,\n//         uint256 tokenId,\n//         bytes calldata\n//     ) external returns (bytes4) {\n\n//         uint256 auctionId = uint256(keccak256(abi.encode(uint256(msg.sender), tokenId)));\n//         auctionDetails[auctionId] = AuctionDetails({\n//             nftContract: ERC721(msg.sender),\n//             bidIsComplete: false,\n//             seller: from,\n//             winningBidder: address(0),\n//             tokenId: tokenId\n//         });\n\n//         return 0x150b7a02;\n//     }\n\n//     function completeAuction(uint256 auctionId) external {\n//         auctionDetails[auctionId].bidIsComplete = true;\n//     }\n\n//         function withdraw(uint256 auctionId) external {\n//         AuctionDetails storage details = auctionDetails[auctionId];\n\n//         require(details.bidIsComplete);\n//         require(msg.sender == details.winningBidder);\n//         // Collect money from winning bidder\n\n//         details.nftContract.safeTransferFrom(address(this), details.winningBidder, details.tokenId);\n//         // Send money to seller\n//         // Do event logging\n//         delete auctionDetails[auctionId];\n//     }\n// }\n",
  "sourcePath": "/Users/ramtin/Desktop/reGal/contracts/RegalAuction.sol",
  "compiler": {
    "name": "solc",
    "version": "0.4.24+commit.e67f0147.Emscripten.clang"
  },
  "schemaVersion": "3.3.4",
  "updatedAt": "2021-04-15T17:42:06.045Z",
  "networkType": "ethereum",
  "devdoc": {
    "methods": {}
  },
  "userdoc": {
    "methods": {}
  }
}